:020000040800F2
:1000000000A000201D780008090300080D03000867
:100010001103000815030008190300080000000080
:100020000000000000000000000000000D67000854
:100030001D03000800000000C567000825680008CF
:100040006D7800086D7800086D7800086D780008FC
:100050006D7800086D7800086D7800086D780008EC
:100060006D7800086D7800086D7800086D780008DC
:100070006D7800086D7800086D7800086D780008CC
:100080006D7800086D7800086D7800086D780008BC
:100090006D7800086D7800086D7800082903000865
:1000A0006D780008210300086D7800086D7800085D
:1000B0006D7800086D7800086D7800086D7800088C
:1000C0006D7800086D7800086D7800086D7800087C
:1000D0006D7800082D03000899030008110400083A
:1000E0006D7800086D7800086D7800086D7800085C
:1000F0006D7800086D7800086D7800086D7800084C
:100100000000000000000000000000006D78000802
:100110006D7800086D7800086D7800086D7800082B
:100120006D7800086D7800086D7800086D7800081B
:100130006D7800086D7800080000000000000000E5
:100140006D780008250300086D78000800000000A5
:10015000000000000000000000000000000000009F
:1001600000000000000000006D7800086D780008B5
:100170006D78000800000000000000000000000092
:08018000000000006D7800088A
:1001C0000348044B834202D0034B03B118477047E6
:1001D0009008002090080020000000000548064913
:1001E0000B1AD90F01EBA301491002D0034B03B145
:1001F0001847704790080020900800200000000079
:1002000010B5064C237843B9FFF7DAFF044B13B15E
:100210000448AFF300800123237010BD9008002034
:10022000000000008478000808B5044B1BB10449A5
:100230000448AFF30080BDE80840CFE700000000AD
:100240009408002084780008A3F5803A704700BF26
:10025000154B002B08BF114B9D46FFF7F5FF002102
:100260008B460F461148124A121A06F08BFF0C4BB0
:10027000002B00D098470B4B002B00D09847002054
:10028000002104000D000B4806F0CCFB06F0FAFB41
:100290002000290007F08EFA06F0CAFB00000800D3
:1002A0000000000000000000000000009008002096
:1002B000440C0020516A000808B5084C20464FF451
:1002C000007101F08DF820464FF4806101F08AF84A
:1002D0004FF4FA7003F0E4FFF0E700BF00100048AD
:1002E00008B5084C20464FF4007101F07BF8204619
:1002F0004FF4806101F074F84FF4FA7003F0D0FF0E
:10030000F0E700BF00100048704700BFFEE700BFE5
:10031000FEE700BFFEE700BFFEE700BF704700BF7B
:10032000704700BF704700BF704700BF10B5144949
:10033000144801F05DFFC0B91349124801F058FF9D
:1003400000B910BD0F48114C01F05AFE104B0C497A
:1003500002461A702046012201F012FF4021204679
:1003600001F03EFF0028F9D010BD0A4B054819786E
:1003700001F042FE02490348002201F001FFDBE7E1
:100380000701070000380140050105000044004056
:10039000900A0020910A002010B51649164801F075
:1003A00027FFC0B91549144801F022FF00B910BD5C
:1003B0001148134C01F024FE124B0E4902461A70EC
:1003C0002046012201F0DCFE4021204601F008FF1A
:1003D0000028F9D010BD0C48102101F003F80B4B98
:1003E0000548197801F008FE02490348002201F08F
:1003F000C7FED7E7070107000044004005010500DC
:1004000000380140910A002000040048900A0020B2
:1004100070B52F492F4801F0EBFE38BB2E492D480F
:1004200001F0E6FE00B970BD2C4E2A482C4C01F0BC
:10043000E7FD73682B4AE0540133D9B2204673605C
:1004400000F0A0F90546002831D1274A317920462D
:1004500000F098F90028E6D0204606F011FF294662
:100460000246204606F08EFE756070BD1B4D1F488B
:100470001F4E4FF4806100F0B5FF2B681548F15C0A
:1004800001F0BAFD2C68304601342C6006F0F8FE0D
:10049000A042C3D800240246214630462C6006F014
:1004A00071FE0B490B48224601F06AFEB6E74FF495
:1004B00000610E4800F096FF204606F0E1FE0021A4
:1004C0000246204606F05EFE0023736070BD00BF4A
:1004D000070107000048004005010500B0080020A2
:1004E000940A0020B4780008B8780008001000488A
:1004F000500A0020FEE700BFFEE700BF30B5012133
:100500008BB04FF4804000F0E3FD01214FF4003048
:1005100000F0D2FD4FF4C06440F2023307220921FB
:100520004FF09040CDE9024300F066FF07220A2118
:100530004FF0904000F060FF154C02A94FF0904042
:1005400000F0D2FE04A801F0A5FC4FF4E135002331
:100550000C2204A92046CDE90823CDE90453CDE9B6
:10056000063301F03DFC4FF4E06001F069FE094BF9
:10057000019301A801F06EFE2046012101F0ACFCC0
:1005800005492046012201F0FBFD0BB030BD00BF44
:1005900000380140250000010501050030B50121AA
:1005A0008BB04FF4003000F09FFD01214FF400307C
:1005B00000F082FD0C2540F20233072202214FF0A9
:1005C0009040CDE9025300F017FF072203214FF0BE
:1005D000904000F011FF154C02A94FF0904000F040
:1005E00083FE04A801F056FC4FF4E132002304A975
:1005F0002046CDE90423CDE906330993089501F09F
:10060000EFFB4FF4E06001F01BFE094B019301A8E2
:1006100001F020FE2046012101F05EFC0549204644
:10062000012201F0ADFD0BB030BD00BF0044004021
:10063000260001010501050030B501218BB04FF402
:10064000802000F051FD204D204C01214FF48020EE
:1006500000F032FD4FF4406140F20233284602912F
:1006600007220A21039300F0C7FE072228460B2128
:1006700000F0C2FE02A9284600F036FE04A801F0F0
:1006800009FC4FF4E13500230C2204A92046CDE9F2
:100690000823CDE90453CDE9063301F0A1FB4FF463
:1006A000E06001F0CDFD0A4B019301A801F0D2FDFD
:1006B0002046012101F010FC06492046012201F0EC
:1006C0005FFD0BB030BD00BF000400480048004093
:1006D000270002010501050030B50C4C83B0012153
:1006E0004FF4001000F0E8FC4FF4F05540F20133F5
:1006F00020466946ADF80430009500F0F5FD294626
:100700002046002200F070FE03B030BD001000480B
:1007100008B56FF0040001F0E7FD074B07491B68BF
:10072000074AA1FB0313C3F34753C3EB431103EB86
:100730008103DB00138008BD1400002083DE1B430F
:10074000CC08002082B00D4A0190019B11880C4A10
:1007500003FB01F3002153609160136843F0010330
:100760001360136803F00113012BFAD01368002102
:1007700023F001031360916002B07047CC080020A1
:1007800010E000E0C9B1013930B4002350FA81F51E
:10079000013802E00023A8420CD010F8014FD15CD0
:1007A0008C42F7D10133DBB2D15C0029F3D10120B7
:1007B00030BC7047002030BC70470846704700BF0F
:1007C00010B43D4C3D4BD4F888003D4A3D4940F4BF
:1007D0007000C4F88800186840F00100186058687C
:1007E00002405A601A6822F0847222F480321A6041
:1007F0001A6822F480221A605A6822F4FE025A60B3
:10080000DA6A22F00F02DA62186B83B0002201402C
:1008100019639A60009201921A6842F480321A6059
:1008200003E0009AB2F5A04F09D01A6802F4003232
:100830000192009A01320092019A002AF1D01F4BD6
:100840001B6813F4003318BF01230193019B012B94
:1008500007D0194B4FF000629A6003B05DF8044B6B
:100860007047194A154B122111605A685A605A682C
:100870005A605A6842F480625A605A6822F47C12C4
:100880005A605A6842F4E8125A601A6842F080725C
:100890001A601A689201FCD55A68084922F00302CE
:1008A0005A605A6842F002025A604B6803F00C0327
:1008B000082BFAD1CDE700BF00ED00E000100240A8
:1008C0000CC07FF8CCFC00FF00200240124A5368A5
:1008D00003F00C03082B09D0104B0F4A1049526843
:1008E000C2F303128A5CD3400B61704753685168AE
:1008F000C3F38343C90303F1020303D4094A02FB90
:1009000003F3EAE7D26A054902F00F020132B1FBB4
:10091000F2F203FB02F3E0E70010024000127A005B
:100920000400002000093D00EC78000800000020D1
:100930009008002090080020440C0020114B124A1F
:100940001868124940F001001860586802405A6067
:100950001A6822F0847222F480321A601A6822F433
:1009600080221A605A6822F4FE025A60DA6A22F47F
:100970007F5222F03F02DA62186B002201401963B5
:100980009A6070470010024000C0FFF8CCEC000FE6
:10099000024B00221A701870704700BF021002400C
:1009A00082B000230949019300E04AB90A68019B1B
:1009B00001330193019BB3F5A04F02F40032F4D14F
:1009C000024B1868C0F3404002B07047001002406C
:1009D000034A136823F0F80343EAC0031360704727
:1009E00000100240014B1860704700BF00004242F7
:1009F000064B1A6A22F001021A621A6A22F00402F5
:100A00001A621A6A10431862704700BF0010024051
:100A1000044B1A6A22F018021A621A6A104318620A
:100A2000704700BF00100240014B1860704700BFC4
:100A300080044242044A536823F474135360536899
:100A4000194308435060704700100240014B186082
:100A5000704700BF60004242034AD36A23F00F038D
:100A60000343D362704700BF00100240014B18607F
:100A7000704700BF4C004242034A536823F00743CB
:100A800043EA00635360704700100240034A536812
:100A900023F0030303435360704700BF001002407C
:100AA000024B586800F00C00704700BF0010024075
:100AB000034A536823F0F00303435360704700BFB9
:100AC00000100240034A536823F4E0630343536079
:100AD000704700BF00100240034A536823F460537C
:100AE00043EAC0035360704700100240AA4A5368AB
:100AF00003F00C03082B2DE9F04100F08381A74A95
:100B000002600026A44DA6496B68C3F30313CF5CB3
:100B100022FA07F343606C68C4F30224FFB20C5D51
:100B200023FA04F48460D5F804C0CCF3C22C11F885
:100B30000CC023FA0CF3C360D5F82CE0CEF30315F8
:100B400001EB45051EF4807F2D8A5FFA8CFCADB267
:100B500002D0002D40F0AE801546DFF83CE2056182
:100B6000DEF82CE0CEF3432501EB45011EF4005FD7
:100B70000D8AADB202D0002D40F09980154686490D
:100B80004561D1F830E0854D1EF0100F0CBFAE4628
:100B90009646C0F818E0D1F830E01EF0200F0CBFE8
:100BA000AE469646C0F81CE0D1F830E01EF0400F8B
:100BB00018BF154605620D6BED0523D5964200F072
:100BC00035814362096BC90423D473498362096B7D
:100BD0008D0523D5964200F056816F49C362096B9B
:100BE000490523D46C49C364096B0D0523D596428E
:100BF00000F0F180684903650D6BAE0424D4096BE5
:100C00001D4624E04362096BCD04DED5964200F018
:100C1000328161498362096B8905DED45E49C36212
:100C2000096B4D05DED5964200F010815A49C36428
:100C3000096B0905DED458490365096B8D0440F141
:100C4000D380964200F00C815349096B1D465249EE
:100C500085650D6BAE0731D00B6B03F00303012BE1
:100C600000F02A810B6B03F00303022B00F03281AA
:100C70000B6B03F00303032B1FD0474B196B11F4CD
:100C8000403F21D1C463444B196B11F4402F36D13E
:100C90000464414B196B11F4401F4BD144643E4B2B
:100CA000196B11F4400F60D18464BDE8F081B6FB8C
:100CB000F5F564E7B6FBF5F54FE7384B8363364B44
:100CC000196B11F4403FDDD0196B01F44031B1F5DF
:100CD000803F00F0F380196B01F44031B1F5003F23
:100CE00000F0F0801B6B03F44033B3F5403F04BFCA
:100CF0002A4BC363284B196B11F4402FC8D0196BD2
:100D000001F44021B1F5802F00F0DA80196B01F475
:100D10004021B1F5002F00F0D9801B6B03F4402374
:100D2000B3F5402F04BF1D4B03641B4B196B11F42B
:100D3000401FB3D0196B01F44011B1F5801F00F0D2
:100D4000B680196B01F44011B1F5001F00F0CB80A3
:100D50001B6B03F44013B3F5401F04BF0F4B4364F8
:100D60000D4B196B11F4400F9ED0196B01F440012B
:100D7000B1F5800F00F09D801A6B02F44002B2F5CD
:100D8000000F00F0AB801B6B03F44003B3F5400F82
:100D90008BD1024B836488E70010024000127A0076
:100DA000180000204FEA460EC0F824E0D1F8308049
:100DB00018F4805F754640F09D8083620D6BAD0531
:100DC00066D4C3620D6B6D0500F1A680C364096B28
:100DD0000D057FF530AF67453DD175004F4905657D
:100DE000096B890400F18E804C490365096B090485
:100DF0007FF506AF96427FF403AF67457FF400AFFF
:100E0000550024E756685368C6F38346DF0306F1AE
:100E100002062CD5D36A424A03F00F030133B2FB1A
:100E2000F3F306FB03F6066032466BE66745B9D07E
:100E300043620D6BED0420D483620D6BAD053FF56D
:100E4000EDAEC362096B49057FF5CCAE674561D055
:100E50003249C364096B31490365096B8904C3D501
:100E600067454ED02D490365096B1D46EFE62D4BB6
:100E700003FB06F6D7E7674539D028498362096B3B
:100E80008D057FF5CBAE67457FF4C8AE4FEA460EC1
:100E900075462249C0F82CE0096B49057FF5A2AEE2
:100EA0001E49C0F84CE0096B090597D4C3E64264BB
:100EB000F5E68264BDE8F0818263DEE6C263E2E6C5
:100EC0000264E6E64FF40043C363DCE64FF40043FC
:100ED0000364DEE64FF400438363CEE64FF4004341
:100EE0008364BDE8F0814FF400434364D7E64FEAE2
:100EF000460E75460949C0F828E0096B8905C8D433
:100F00008CE6750005494565096B11F4004F08BF73
:100F10001D469CE64FEA460E7546C1E700100240AA
:100F200000127A0000093D00064A030FD36A14BF7D
:100F300023F4785323F4F873D362024AD36A184334
:100F4000D062704700100240030F012B07D0022B24
:100F500011D053B10B4A136B184310637047094A01
:100F6000136B23F020031363F4E7064A136B23F09B
:100F700010031363EEE7034A136B23F0400313637C
:100F8000E8E700BF00100240030F072B0AD8DFE894
:100F900003F0041E242A300E1318194A136B23F48D
:100FA00080731363164A136B184310637047144A17
:100FB000136B23F400431363114A136B23F0807304
:100FC00013630F4A136B23F000731363EAE70C4AB1
:100FD000136B23F400731363E4E7094A136B23F4E0
:100FE00080631363DEE7064A136B23F40063136325
:100FF000D8E7034A136B23F400531363D2E700BF0F
:1010000000100240044B1A6B22F480521A631A6BD0
:1010100010431863704700BF00100240030F013BEC
:10102000042B09D8DFE803F00313191F0D00114A40
:10103000136B23F0030313630E4A136B18431063FF
:1010400070470C4A136B23F440031363F4E7094A17
:10105000136B23F440331363EEE7064A136B23F458
:1010600040231363E8E7034A136B23F4401313632D
:10107000E2E700BF00100240014B1860704700BF5C
:10108000D8004242024A136A18431062704700BFF8
:1010900000100240014B1860704700BFDC00424264
:1010A000014B1860704700BF3C044242014B18607E
:1010B000704700BF40044242044A536911B11843CB
:1010C0005061704723EA00005061704700100240F1
:1010D000044A936911B118439061704723EA0000F4
:1010E0009061704700100240044AD36911B118435F
:1010F000D061704723EA0000D061704700100240C1
:10110000044A936A11B118439062704723EA0000C1
:101110009062704700100240044AD36811B118432E
:10112000D060704723EA0000D06070470010024092
:10113000044A136911B118431061704723EA000093
:101140001061704700100240044A137811B118432F
:101150001070704723EA00001070704709100240B9
:10116000430908D10F4B1B6800F01F0023FA00F061
:1011700000F001007047012B0BD0042B094B0CBF72
:101180005B685B6A00F01F0023FA00F000F00100CA
:101190007047044B1B6A00F01F0023FA00F000F0B8
:1011A0000100704700100240024A536A43F0807306
:1011B0005362704700100240034B9B68184214BFF3
:1011C00001200020704700BF00100240014B187042
:1011D000704700BF0A100240B0F1904F08B521D00F
:1011E0003A4B98422AD03A4B984233D0394B9842E6
:1011F0000CD0394B984239D0384B984242D0384BBA
:1012000098424BD0374B984254D008BD01214FF43F
:101210008010FFF775FFBDE8084000214FF48010F3
:10122000FFF76EBF01214FF40030FFF769FFBDE803
:10123000084000214FF40030FFF762BF01214FF456
:101240008020FFF75DFFBDE8084000214FF48020BB
:10125000FFF756BF01214FF40020FFF751FFBDE813
:10126000084000214FF40020FFF74ABF01214FF44E
:101270000010FFF745FFBDE8084000214FF40010C3
:10128000FFF73EBF01214FF48000FFF739FFBDE8B3
:10129000084000214FF48000FFF732BF01214FF4D6
:1012A0000000FFF72DFFBDE8084000214FF40000CB
:1012B000FFF726BF01214FF48030FFF721FFBDE883
:1012C000084000214FF48030FFF71ABF00040048A7
:1012D00000080048000C00480010004800140048B6
:1012E00000180048001C00482DE9F04300230F6857
:1012F00001264FF0030C02E00133102B25D006FA33
:1013000003F535EA0702F7D10A7902F1FF385C00EC
:10131000B8F1010F0CFA04FE19D97546ED43D0F867
:1013200000E00EEA050505600568A2402A43026058
:10133000C568CA790CFA04FE25EA0E0502FA04F41F
:1013400001332C43102BC460D9D1BDE8F083D0F811
:10135000088028EA0E08C0F8088091F80580D0F8C7
:10136000089008FA04F848EA0908C0F80880B0F8BC
:1013700004801FFA88F828EA0505858091F8068020
:10138000858808FA03F848EA05081FFA88F86FEA22
:101390000E05A0F80480C2E74FF6FF724FF4007309
:1013A000C0E90023704700BF41F48033C361C161CD
:1013B000C361C369C3697047038A194214BF01201E
:1013C00000207047008A80B2704700BF838A1942AC
:1013D00014BF012000207047808A80B2704700BF90
:1013E00081617047018570470AB18161704701854D
:1013F000704700BF81827047CB0800EB830001F08B
:10140000070110B4036A89000F248C4023EA040307
:101410000362036A5DF8044B8A401A430262704714
:1014200008B50D4B98424FF001010AD04FF0806093
:10143000FFF77EFEBDE8084000214FF08060FFF717
:1014400077BE4FF00050FFF773FEBDE80840002163
:101450004FF00050FFF76CBE0074004070B4D2E94A
:101460000036D2E90245334343EA0402036840F6FA
:10147000FE748C402A4323EA040302FA01F10B4371
:1014800070BC0360704700BF00230222C0E9003334
:10149000C2608360704700BF32B10268012303FA63
:1014A00001F11143016070470368012202FA01F162
:1014B00023EA010101607047090932B14268012342
:1014C00003FA01F11143416070474368012202FAB7
:1014D00001F123EA01014160704700BF436819B17F
:1014E00043F003034360704723F0030343607047F6
:1014F00023B103688A401A430260704703688A4038
:1015000023EA02020260704782B000230193019037
:10151000019B08330B440193019B1A6002B0704792
:1015200082B0002301930190019B14330B4401937B
:10153000019B1A6002B07047082900F120000CBF1F
:1015400043EA022243EA02420A50704782B0002373
:1015500001930190019B2C3303EB91030193019BB9
:10156000186880B202B070473AB102684FF48053F5
:1015700003FA01F111430160704703684FF4805290
:1015800002FA01F123EA010101607047FFF7B0BFE1
:10159000436B02FA01F1194214BF01200020704789
:1015A00002FA01F1416370470368406B8A401040C2
:1015B00003D0134214BF01200020704702FA01F14A
:1015C00041637047B0F1A04F08B516D0114B984257
:1015D00013D0114B984204D003F58073984200D089
:1015E00008BD01214FF00050FFF78AFDBDE808401B
:1015F00000214FF00050FFF783BD01214FF08050D4
:10160000FFF77EFDBDE8084000214FF08050FFF756
:1016100077BD00BF000100500004005070B4D1E954
:101620000035D1E902242B431343D1E90425234398
:101630008E69C4681343074A2B4322403343134344
:10164000C3600B7F026B013B22F00F02134370BC9F
:101650000363704707C0FFFD00230122C0E9003388
:10166000C0E90233C0E9043302778361704700BFE9
:1016700070B4D1E90034D1E903262343D1E90554FC
:1016800043EA022343EA86330A7A43EA055343EAEC
:101690008463013A134370BCC26CC364704700BFDB
:1016A00001230022C0E90022C0E90333C0E9053369
:1016B00003727047B0F1A04F30B429D01D4B98424F
:1016C00012D01D481D4A8568D1E900342A402343C1
:1016D000D1E902541343097C2B4343EA043343EA20
:1016E000012330BC83607047154B144A9D688C6899
:1016F000D1E900302A4003431343C8680A7C2343DE
:1017000043EA003343EA02230D4A30BC936070473A
:101710000B4B0A489D688C68D1E90032284013437E
:101720000343CA68097C234343EA023343EA0123A3
:10173000EAE700BF0001005000070050E010FCFF86
:10174000000300500023C0E90033C0E902330374F2
:10175000704700BF836819B143F00103836070478D
:1017600043F0020383607047836843F00043836063
:10177000704700BFD0F8B400704700BFC0F8B41085
:10178000704700BF826822F08042826083681943FC
:10179000816070478068C00F704700BF836843F066
:1017A00002038360704700BF8068C0F34000704749
:1017B000836823F040538360836819B143F08053FA
:1017C0008360704743F000538360704742B1D0F8A4
:1017D000B020012303FA01F11143C0F8B0107047A3
:1017E000D0F8B030012202FA01F123EA0101C0F879
:1017F000B0107047C36819B143F40013C360704759
:1018000023F40013C3607047C36819B143F48043E5
:10181000C360704723F48043C3607047C36823F0FC
:10182000E0731943C1607047036A23F07F6323F4B8
:1018300070230362036A43EA01410162036A23F4ED
:101840007F6323F00F030362036A1A430262704747
:1018500010B4446A24F47F044462436A5DF8044B84
:1018600043EA01414162436A23F0FF034362436A52
:101870001A434262704700BF10B4846A24F47F04A4
:101880008462836A5DF8044B43EA01418162836AA2
:1018900023F0FF038362836A1A438262704700BFAA
:1018A000C36823F0F84343EA8161C160704700BF19
:1018B00030B4074AD0F8A040D0F8A05001238B40A4
:1018C0002B432240134330BCC0F8A030704700BF08
:1018D0000100F8FF30B4074AD0F8A440D0F8A45073
:1018E00001238B402B432240134330BCC0F8A4306B
:1018F000704700BF0100F8FF054A936819B143F42F
:1019000000039360704723F400039360704700BFA7
:1019100000030050B0F1A04F09D0094B984206D007
:10192000084A936839B143F4800393607047064ACC
:1019300093680029F7D123F480039360704700BFB8
:10194000000100500007005000030050054A936852
:1019500019B143F080739360704723F080739360F4
:10196000704700BF00030050042A30B41DD802EBBA
:101970004202046B52001F25954024EA050401FA37
:1019800002F222430263092920D90A398269826955
:1019900001EB410107248C4022EA04028261826942
:1019A0008B40134330BC83617047092A20D8053A25
:1019B00002EB4202446B52001F25954024EA0504C5
:1019C00001FA02F2224309294263DED80139426951
:1019D000426901EB410138248C4022EA0402426151
:1019E0004269033103FA01F1114330BC4161704790
:1019F0000E2A0DD80A3A02EB4202846B52001F25D0
:101A0000954024EA050401FA02F222438263BAE710
:101A10000F3A02EB4202C46B52001F25954024EAA4
:101A2000050401FA02F22243C263ACE7036B23F020
:101A30000F030363036B013919430163704700BF50
:101A4000C36823F47C63C360C36811431943C16056
:101A5000704700BF836843F004038360704700BF92
:101A60008068C0F380007047836843F01003836090
:101A7000704700BFC368013923F4602343EA414340
:101A8000C3607047C36819B143F48033C3607047C3
:101A900023F48033C3607047006C80B2704700BF8E
:101AA000B0F1A04F05D0044B984202D0034BD86848
:101AB0007047034BD8687047000100500007005082
:101AC0000003005010B4046E24F0F8440466036E62
:101AD0005DF8044B43EA81610166036E23F47F6382
:101AE00023F00F030366036E1A430266704700BFBC
:101AF00010B4446E24F0F8444466436E5DF8044B21
:101B000043EA81614166436E23F47F6323F00F0350
:101B10004366436E1A434266704700BF10B4846E3A
:101B200024F0F8448466836E5DF8044B43EA8161D7
:101B30008166836E23F47F6323F00F038366836ED5
:101B40001A438266704700BF10B4C46E24F0F84494
:101B5000C466C36E5DF8044B43EA8161C166C36E1F
:101B600023F47F6323F00F03C366C36E1A43C26678
:101B7000704700BF036E19B143F00043036670471E
:101B800023F0004303667047436E19B143F00043EE
:101B90004366704723F0004343667047836E19B174
:101BA00043F000438366704723F000438366704729
:101BB000C36E19B143F00043C366704723F000437E
:101BC000C3667047C36819B143F00103C36070472F
:101BD00023F00103C3607047C26822F00202C260B2
:101BE000C3681943C1607047092910B410D90A3974
:101BF000836901EB410107248C4023EA04038361DC
:101C000083695DF8044B02FA01F119438161704761
:101C10000139436901EB410138248C4023EA040374
:101C200043614469CB1C02FA03F1214341615DF831
:101C3000044B7047836843F008038360704700BF1C
:101C4000836843F020038360704700BF8068C0F35F
:101C5000C0007047C36819B143F00073C360704798
:101C600023F00073C3607047C36819B143F4801355
:101C7000C360704723F48013C360704782B00023B1
:101C800001930190019B03EB81017C310191019B48
:101C9000186880B202B07047436812B119434160BE
:101CA000704723EA01014160704700BF03680B429F
:101CB00014BF01200020704701607047B0F1A04FB1
:101CC00005D0064B984202D0054B1B6801E0054B3E
:101CD0001B680B4214BF0120002070470001005018
:101CE0000007005000030050B0F1A04F07D0064B92
:101CF000984204D0054A1368194311607047044A9A
:101D0000136819431160704700010050000700502C
:101D1000000300500368426889B211EA030003D04F
:101D2000114214BF01200020704700BF01607047BE
:101D300008B5264B984218D0254B984221D0254B08
:101D400098422AD0244B984203D0244B984230D05A
:101D500008BD01214FF40020FFF7EAF9BDE8084073
:101D600000214FF40020FFF7E3B901214FF4804038
:101D7000FFF7D2F9BDE8084000214FF48040FFF79B
:101D8000CBB901214FF40030FFF7D2F9BDE808408C
:101D900000214FF40030FFF7CBB901214FF4802030
:101DA000FFF7C6F9BDE8084000214FF48020FFF797
:101DB000BFB901214FF48010FFF7BAF9BDE8084020
:101DC00000214FF48010FFF7B3B900BF0038014085
:101DD0000044004000480040004C004000500040DB
:101DE000036823F0010330B5036042680D4689683B
:101DF0006B68044622F440520A43E8686260226835
:101E00002969034322F4B05222F00C020B4313431E
:101E10002360A3686A6923F44073134399B0A360F5
:101E200001A8FEF763FE174B9C4226D0164B9C423E
:101E300021D0164B9C4222D0154B9C420CBF129ACB
:101E4000139A23682968180448BF5200B2FBF1F3C3
:101E500001FB1322B2EB510F226828BF0133120499
:101E600005D54FF6F0721A40C3F3420313439BB2F9
:101E7000A38119B030BD109AE3E70F9AE1E7119AF8
:101E8000DFE700BF00380140004400400048004048
:101E9000004C004000234FF416510C22C0E90133DE
:101EA00001600261C3604361704700BF30B4D1E993
:101EB0000035D1E9024142682B4323430B4322F40E
:101EC0007062134330BC4360704700BF0023C0E919
:101ED0000033C0E902337047036819B143F00103CE
:101EE0000360704723F0010303607047036812B179
:101EF00019430160704723EA01010160704700BF88
:101F0000036819B143F400430360704723F40043AE
:101F100003607047836819B143F4006383607047BE
:101F200023F4006383607047436819B143F40023CE
:101F30004360704723F4002343607047436819B13E
:101F400043F480234360704723F480234360704749
:101F5000436812B119434160704723EA01014160AF
:101F6000704700BF436819B143F4004343607047B2
:101F700023F4004343607047436819B143F40003FE
:101F80004360704723F4000343607047426902F0E6
:101F90007F4242614369194341617047028A02F4FA
:101FA0007F420282038A9BB219430182704700BFBD
:101FB000036819B143F002030360704723F0020382
:101FC00003607047826822F440128260836819437C
:101FD00081607047436819B143F4801343607047D0
:101FE00023F4801343607047426822F4C0024260C9
:101FF0004368194341607047C1F308010185704788
:10200000808CC0F308007047426822F07F42426033
:10201000436843EA01614160704700BF036819B13A
:1020200043F400530360704723F400530360704788
:10203000026822F40062026003681943016070477D
:10204000426822F0100242604368194341607047C1
:10205000426822F0200242604368194341607047A1
:10206000436819B143F480434360704723F48043CD
:1020700043607047836819B143F008038360704779
:1020800023F0080383607047028AD2B20282038A77
:102090009BB243EA01210182704700BF836819B1F6
:1020A00043F020038360704723F020038360704770
:1020B000836819B143F010038360704723F0100365
:1020C00083607047826822F460228260836843EAFA
:1020D00041418160704700BF426922F07F42426106
:1020E000436943EA01614161704700BF826822F0A1
:1020F000040282608368194381607047836819B164
:1021000043F002038360704723F00203836070474B
:10211000836819B143F480438360704723F480439C
:1021200083607047826822F40042826083681943AA
:1021300081607047026822F078720260036843EAA7
:1021400041510160704700BF026822F4F81202603A
:10215000036843EA01410160704700BF836812B120
:1021600019438160704723EA01018160704700BF15
:10217000826822F40052826083681943816070474C
:1021800010B4CCB2C1F307210123022903FA04F3EE
:1021900010D0032908BF08302AB102685DF8044B4B
:1021A00013430360704702685DF8044B22EA03039F
:1021B000036070470430EFE7038B1AB1194389B20B
:1021C000018370479BB223EA01010183704700BF7E
:1021D000826822F48052826083681943816070476C
:1021E000C3690B4214BF0120002070470162704791
:1021F000C1F3072210B40123CCB2012A03FA04F37D
:1022000015D0022A0CBF426882681340C26953B1DC
:102210000123090C03FA01F1114214BF18460020F2
:102220005DF8044B704718465DF8044B7047026830
:102230001340EBE7090C012303FA01F10162704737
:10224000034B40F0BF6040F40030D860704700BFDF
:1022500000ED00E0C378FBB130B4154A4378D16893
:102260008278144D0078C943C1F30221C1F10404FE
:1022700003FA04F40F23CB401340234329181B0116
:1022800000F01F0401224009DBB2A24081F80033B4
:1022900045F8202030BC7047037806485A092032A0
:1022A00003F01F03012101FA03F340F822307047C5
:1022B00000ED00E000E100E021F06041024B21F080
:1022C0007F0108439860704700ED00E021B1054BA5
:1022D0001A69104318617047024A136923EA000023
:1022E0001061704700ED00E0044A136804280CBF39
:1022F00043F0040323F004031360704710E000E090
:1023000008B50D4B98424FF001010AD04FF4800000
:10231000FEF70EFFBDE8084000214FF48000FEF7F5
:1023200007BF4FF40010FEF703FFBDE8084000218F
:102330004FF40010FEF7FCBE0054004003680A682A
:1023400023F00103036070B4D1E901350668134C32
:1023500043EA05233440234322F0706203600261A4
:10236000D1E9033205688C694E69224345F00105C5
:10237000002405608460C4608260816841F400418B
:10238000816002681A430260436823F0784323F4B3
:1023900000433343436070BC704700BFFFE0CF0091
:1023A00000234FF40042C0E90033C0E90233426128
:1023B00003618361704700BF036819B143F00103F3
:1023C0000360704723F0010303607047036823F044
:1023D000010303600368036843F00103036070476F
:1023E000036812B119430160704723EA01010160DB
:1023F000704700BF036819B123F4003303607047CE
:1024000043F4003303607047036819B143F4802339
:102410000360704723F4802303607047C36819B1D9
:1024200043F40043C360704723F40043C360704724
:10243000C368120202F4E06201F0FE0123F4FF63BC
:102440000A4323F006031A43C2607047036819B1B8
:1024500043F400230360704723F4002303607047B4
:10246000036819B143F480330360704723F4803369
:1024700003607047436823F47F73C1F3090123F0BD
:102480000303194341607047436819B143F4006383
:102490004360704723F4006343607047436819B199
:1024A00043F000734360704723F00073436070474C
:1024B000436819B143F080734360704723F0807321
:1024C00043607047436823F47F0343EA014141605E
:1024D000704700BF436819B923F4806343607047B5
:1024E00043F4806343607047436819B143F4005379
:1024F0004360704723F4005343607047436819B149
:1025000043F480434360704723F480434360704743
:10251000436819B143F480534360704723F48053F8
:1025200043607047436819B123F400434360704728
:1025300043F40043436070478069000C00F0FE00E4
:10254000704700BF836913F4803F14BF4FF480606D
:102550000020704730B4029D44682B43054DC1F301
:10256000090143EA02432C400B432343436030BC40
:10257000704700BF009800FC036819B143F4800362
:102580000360704723F4800303607047436919B107
:1025900043F400434361704723F4004343617047B1
:1025A000436919B143F000434361704723F000438E
:1025B00043617047436919B143F4805343617047E5
:1025C00023F4805343617047436923F47F63C1F36D
:1025D0000B0123F00F031943416170474269054B1A
:1025E00022F07F6203EA014122F47022114341612B
:1025F000704700BF0000FF0F036819B143F40003E8
:102600000360704723F4000303607047036819B147
:1026100043F080630360704723F08063036070477A
:10262000006AC0B2704700BF82B0002301930190DE
:10263000019B19440191019B186802B0704700BFCB
:1026400081627047406AC0B2704700BFFFF7C8BEE2
:1026500083690B4214BF012000207047C16170479D
:1026600011F47C5F036808D003F0800380690840A0
:1026700002D0181E18BF0120704711F0C00F14BF00
:1026800003F040030B40F1E7C161704730B40B4BDE
:1026900000224FF0FC556FF0FC540C2003211D600C
:1026A0005A609A60DA601A615C61186230BC5A62E2
:1026B0009A62DA621A635963704700BF00040140EE
:1026C000F0B48379002B54D005683E4E3E4C3F4910
:1026D00025F01F0202F1804202F5823201231768C1
:1026E00005F01F0503FA05F527EA050515600268E0
:1026F00022F01F0702F01F02BD5903FA02F225EA79
:102700000202BA510579026805F1804522F01F06E0
:1027100005F5823502F01F02775903FA02F23A43B7
:102720007251026822F01F0602F01F02355903FAA7
:1027300002F225EA02023251026822F01F0602F07C
:102740001F02755803FA02F225EA0202725042791A
:10275000102A21D0016802F1804221F01F0002F509
:10276000823201F01F0184588B4023438350F0BC18
:1027700070470379026803F1804322F01F0403F5D8
:10278000823302F01F02E158012000FA02F221EA2E
:102790000202E250F0BC7047026822F01F0502F00E
:1027A0001F022E5903FA02F232432A51026822F024
:1027B0001F0002F01F024458934023434350F0BCD3
:1027C000704700BF04040140080401400C040140AC
:1027D00000234FF48052828003608371704700BFF2
:1027E00020F01F01064A10B400F01F008C5801238E
:1027F00003FA00F0204388505DF8044B704700BF97
:1028000010040140064B20F01F0200F01F00D258B8
:10281000012303FA00F0104214BF1846002070474D
:102820001404014000F01F01034A20F01F0001239F
:102830008B408350704700BF14040140FFF7E2BF94
:10284000FFF7F0BF00217F22FF2380E80E007047D2
:10285000044B10B1FF225A627047CA2153225962B9
:102860005A6270470028004082B000230E4901934D
:10287000CB685B0614D44FF0FF33CB6000E04AB95D
:10288000CA68019B01330193019BB3F5005F02F01D
:102890004002F4D1044BD868C0F3801002B07047F6
:1028A000012002B0704700BF0028004038B5104C2E
:1028B000CA225323626263620546FFF7D5FF98B1CF
:1028C000A36823F04003A360A3682A681343A360AE
:1028D000AB68236123696A6843EA02432361E368C2
:1028E00023F08003E3600120014BFF225A6238BDD0
:1028F00000280040024AD36823F08003D360704769
:102900000028004082B00023114901938B689B0688
:102910001BD45323CA224A624B62CB6823F0A00324
:10292000CB6000E04AB9CA68019B01330193019B67
:10293000B3F5004F02F02002F4D1054BD868FF2216
:10294000C0F340105A6202B07047012002B07047D5
:102950000028004030B51F4C83B00025CA22532305
:10296000019562626362FFF77FFFB8B142F2011323
:1029700025606360A36803F00703A36000E04AB921
:10298000E268019B01330193019BB3F5005F02F004
:102990000402F4D10F4BDA68520705D400200D4B26
:1029A000FF225A6203B030BD00220B499C689A6036
:1029B0004FF6FF7058611961DA611A62DA62DA6300
:1029C0005A649A64DA601A64FFF79CFF003818BFF3
:1029D0000120E4E700280040FF007F0038B50E4CDE
:1029E000CA225323626263620546FFF73DFF50B17E
:1029F000A36865B923F01003A360074AD36823F0E6
:102A00008003D3600120044BFF225A6238BD43F09B
:102A10001003A360F1E700BF002800400A4B5322D7
:102A2000CA2159625A629A6830B142F020029A6013
:102A3000054BFF225A62704702F0DF029A60024B98
:102A4000FF225A62704700BF0028004038B5374B5C
:102A5000002835D19D6815F040055AD1CD700B780E
:102A6000092B88BF002208D90A3BDBB20132092BAF
:102A7000D2B2F9D843EA0213DBB2487809284FEA08
:102A8000034209D900230A38C0B201330928DBB256
:102A9000F9D840EA0310C0B28C78092C4FEA002024
:102AA00009D900210A3CE4B20131092CC9B2F9D894
:102AB00044EA0114E4B242EA050303431C430CE078
:102AC0009C6814F0400421D1CC704B7808788A7847
:102AD0001B0243EA004313431C43144DCA225323F1
:102AE0006A626B62FFF7C0FE60B104F07F3424F0CD
:102AF000FE442C60EB6823F08003EB60AB689B0620
:102B00000AD50120094BFF225A6238BDCC78240433
:102B1000DBE7CB781D04A2E7FFF7F4FE034B003898
:102B20004FF0FF0218BF01205A6238BD0028004054
:102B30000023C3700370437083707047154B1B688C
:102B400070B4C3F30645C3F30544C3F3062205F08E
:102B5000400603F07F03CE700C704A708B70B8B9DA
:102B6000100900EB80062409180904EB840405F021
:102B70000F0502F00F0200EB800003F00F0305EBDE
:102B8000440402EB460203EB40030C704A708B7066
:102B900070BC704700280040014B986A5B68704722
:102BA0000028004038B5002832D14878C20652D4F7
:102BB000CB78092B09D900220A3BDBB20132092B61
:102BC000D2B2F9D843EA0213DBB209284FEA034232
:102BD00009D900230A38C0B201330928DBB2F9D879
:102BE00040EA0310C0B28C78092C4FEA002009D9C2
:102BF00000230A3CE4B20133092CDBB2F9D844EAE1
:102C00000314E4B20B7842EA433303431C4309E064
:102C10004B78C8788A780C781B0243EA0043134348
:102C200043EA4434164DCA2253236A626B62FFF7AB
:102C30001BFE60B124F07F4424F0C0046C60EB689C
:102C400023F08003EB60AB689B060ED501200C4B94
:102C5000FF225A6238BDCB7820F010000A30C0B293
:102C6000092B4870A7D81A04B3E7FFF74BFE044BB3
:102C700000384FF0FF0218BF01205A6238BD00BF74
:102C80000028004001230022C2700370837043704B
:102C9000704700BF154B5B6870B403F03F02C3F38D
:102CA0004236C3F30744C3F304250E70CC704D7055
:102CB0008A70C3F30723B8B92D09A8002609054473
:102CC000100903F00F0306EB860604F00F0400EB77
:102CD000800002F00F0203EB450304EB460402EB15
:102CE00040024B70CC708A7070BC70470028004066
:102CF000F0B43A4B002859D19F6817F0400752D1E1
:102D0000D7701378092B88BF002008D90A3BDBB2A3
:102D10000130092BC0B2F9D843EA0013DBB2507876
:102D200009284FEA034309D900240A38C0B2013404
:102D30000928E4B2F9D840EA0410C0B29578092D08
:102D40004FEA002009D900260A3DEDB20136092DCF
:102D5000F6B2F9D845EA0615EDB2147B092C09D96B
:102D600000260A3CE4B20136092CF6B2F9D844EA4E
:102D70000614E4B2D2E90126324317433B43184319
:102D8000054345EA0464154B5322B1F5807F4FF0AB
:102D9000CA0058625A620CBFDC611C620F4BFF22F2
:102DA000F0BC5A627047D7783F04AAE79D6815F0D7
:102DB000400510D1D570D2E9010394781678034309
:102DC0001C435078137B44EA064444EA002444EA56
:102DD00003642C43D7E7D4782504ECE700280040AF
:102DE00000230122C0E9003302738360704700BFF3
:102DF000244BB1F5807F0CBFDB691B6AC3F307412D
:102E00002DE9F04103F0804C03F08037C3F3054E09
:102E1000C3F3062603F07F05C3F3056401F0400801
:102E2000C2E9017C82F80380C3F3072CDFB282F889
:102E300000E05670957014731B0E00BB4FEA1E1E07
:102E400036092D0924090EEB8E0E06EB860605EBDE
:102E5000850504EB840401F00F010CF00F0C07F062
:102E60000F0703F00F0301EB4E010CEB460607EBD7
:102E7000450503EB44041170567095701473BDE85A
:102E8000F08100BF0028004030B4154B82B05322BF
:102E90000025CA2401955C625A629A6841B11043C8
:102EA000986001200E4BFF225A6202B030BC70477E
:102EB00022EA00029A60000A194600E04AB9CA688C
:102EC000019B01330193019BB3F5005F02EA00020D
:102ED000F4D1034BDB68184214BF01200020E1E766
:102EE0000028004030B4084B0A43CA255324B0F5EB
:102EF000807F5D625C620CBF5A649A64024BFF2261
:102F000030BC5A62704700BF00280040044BB0F547
:102F1000807F0CBF586C986CC0F30E00704700BFE8
:102F200000280040074B5322CA2159625A629A680E
:102F300022F007029A609A681043FF2298605A6252
:102F4000704700BF00280040054B10B45321CA242D
:102F5000FF225C6259625DF8044B58615A62704707
:102F600000280040014B586980B27047002800409B
:102F700010B4154B83B053220024CA210194596226
:102F80005A629A6850B142F480629A6001200E4BF6
:102F9000FF225A6203B05DF8044B704722F480624E
:102FA0009A60194600E04AB9CA68019B013301934F
:102FB000019BB3F5005F02F00402F4D1024BD86824
:102FC000C0F38000E3E700BF00280040094B10B4C5
:102FD0005322CA245C625A629A685DF8044B22F458
:102FE00080229A609A6811430843FF2298605A62CF
:102FF000704700BF00280040024B986800F4802012
:10300000704700BF00280040094B10B45322CA2467
:103010005C625A629A685DF8044B22F4E0029A609E
:103020009A6811430843FF2298605A62704700BFB4
:10303000002800400A4B5322CA2159625A629A68FA
:1030400030B142F400029A60054BFF225A62704789
:1030500022F400029A60024BFF225A62704700BFBE
:1030600000280040074B5322CA2159625A629A68CD
:1030700022F400229A609A681043FF2298605A62F4
:10308000704700BF0028004030B4114DCA245323BC
:103090006C626B62EB68DC030AD5EB68DB0307D577
:1030A0004FF4805301E0013B02D0EC68E403FAD412
:1030B000074BDC68E40308D40A430243DA630120C7
:1030C000034BFF2230BC5A6270470020F8E700BF74
:1030D000002800400A4B9B6823F4006323F0080398
:1030E00010B4034309B143F40063054ACA245320D2
:1030F000FF21546250625DF8044B93605162704747
:10310000002800402DE9F043294C236B646BC3F386
:10311000064808F04007CF70C3F30545C3F3062EF9
:10312000C4F3042604F03F0CC4F3423703F07F03DA
:103130004FF000090D7081F801E08B70C4F3072493
:1031400082F80390567082F802C0177068BB360987
:103150004FEA86094E442D0904F00F0408F00F00D1
:103160004FEA13194FEA1E1804EB460405EB8505D8
:103170004FEA1C1600EB450508EB88080EF00F0E11
:1031800009EB890903F00F0306EB86060CF00F002C
:103190000EEB480E03EB490300EB46000D7081F87F
:1031A00001E08B70547017709070BDE8F08300BF21
:1031B00000280040014B986B704700BF002800407A
:1031C000054A136C19B923EA40001064704743EABA
:1031D00040001064704700BF00280040044A136C90
:1031E00011B118431064704723EA0000106470475F
:1031F00000280040044B1A6C22F4C0521A641A6C66
:1032000010431864704700BF00280040044B1A6C3C
:1032100022F4E0621A641A6C10431864704700BF0D
:1032200000280040044B1A6C22F4C0421A641A6C45
:1032300010431864704700BF00280040054A136C13
:1032400018B143F080031364704723F080031364C4
:10325000704700BF00280040054A136C18B123F4E2
:1032600000431364704743F400431364704700BF86
:103270000028004082B0064B002201920193019B7E
:1032800003EB80000190019B196002B0704700BF02
:103290005028004082B0064B002201920193019B0E
:1032A00003EB80000190019B186802B0704700BFDB
:1032B00050280040044B1A6C22F480221A641A6CC5
:1032C00010431864704700BF0028004010B5184C28
:1032D000CA22532362626362E3681A070AD5E3686D
:1032E0001B0707D54FF4005301E0013B02D0E26811
:1032F0001207FAD40E4AD36813F0080307D1946872
:10330000E40609D518460A4BFF225A6210BD084B45
:10331000FF2200205A6210BD0143D162FFF7F2FA8A
:10332000034B00384FF0FF0218BF01205A6210BD56
:1033300000280040114B10B45322CA245C625A6228
:1033400079B1996820F004020A439A601A6C00F07F
:10335000040010431864094B5DF8044BFF225A62C5
:1033600070479A6820F0040122EA01029A601A6C00
:1033700000F0040022EA00001864ECE70028004096
:10338000044A054BD26810400340181E18BF0120A4
:10339000704700BF002800407FFF01000549064A32
:1033A000CB68024042F0800203F0800363EA02032C
:1033B000CB607047002800407FFF010010B40D4C27
:1033C000810C236CA268E46820FA01F103EAD1338E
:1033D00003F004030240134308D004EA101080B243
:1033E000003818BF01205DF8044B704718465DF89F
:1033F000044B704700280040054AD368C0F30F1003
:1034000040F0800003F0800363EA0003D36070475C
:103410000028004008B501214FF08050FDF788FEDC
:10342000BDE8084000214FF08050FDF781BE00BF8D
:10343000014B1860704700BF20000E42034A13681A
:1034400023F0E00303431360704700BF00700040A7
:10345000014B1860704700BF10000E42044A5368C9
:1034600011B118435060704723EA00005060704764
:1034700000700040064A1369012823F00403136119
:1034800003D040BF20BF20BF704730BF704700BF90
:1034900000ED00E010B40C4C0C4A236823F0030349
:1034A000034323601369012943F00403136108D027
:1034B00020BF064A5DF8044B136923F0040313612F
:1034C000704730BFF5E700BF0070004000ED00E03E
:1034D0000549064A0B6843F002030B60136943F089
:1034E0000403136130BF70470070004000ED00E03E
:1034F000034B5B68034214BF01200020704700BFEC
:1035000000700040024A136843EA80001060704770
:1035100000700040094B1A6802F007021A6019682F
:10352000002241F0F84119605A609A60DA601A612D
:103530005A619A611A659A64704700BF00000140A1
:10354000034A136823F0070303431360704700BF67
:103550000000014000280A4A08DB136811B1184333
:103560001060704723EA000010607047136D11B1BE
:1035700018431065704723EA00001065704700BFCC
:1035800000000140FFF7E6BF044B1A6822F4400236
:103590001A601A6810431860704700BF00000140AD
:1035A000014B1860704700BF14002042044A1368A2
:1035B00011B118431060704723EA00001060704793
:1035C00000000140FFF7F2BF01F0FC0303F180436C
:1035D00003F5803301F0030110B49A6889000F24C9
:1035E0008C4022EA04029A609A685DF8044B884095
:1035F00002439A60704700BF024A93691843906182
:10360000704700BF00000140014B01221A60704763
:1036100010032042044A936C11B118439064704720
:1036200023EA00009064704700000140024A53689A
:1036300018435060704700BF00000140024B98697A
:10364000C0F30020704700BF00000140FFF7D4BF67
:10365000014B0022C25070471C00014030B4D1E938
:1036600000348A680D6923431343074CCA682B430F
:10367000D1E90551134302592B430B4302F00302D6
:103680001343035130BC70471C00014000230C223F
:10369000C0E90033C0E90233C0E9043382617047F6
:1036A000054A835819B143F001038350704723F052
:1036B00001038350704700BF1C000140054A835836
:1036C00019B143F002038350704723F00203835083
:1036D000704700BF1C000140024BC05800F0804002
:1036E000704700BF1C000140054A835819B143F4DC
:1036F00000738350704723F400738350704700BFFA
:103700001C000140024A835843F000438350704735
:103710001C00014080B5134C134F4FF0805614E04D
:1037200003F01AF82369DD68281D02F085FFA369FC
:10373000013BA3612368013B236003F02FF8286B52
:1037400003F062F9284603F05FF92368002BE7D104
:10375000E369012BF9D93E60BFF34F8FBFF36F8F41
:10376000F3E700BFD008002004ED00E0F8B5294CD5
:10377000D4F88060D4F884300546181D0F4602F056
:103780005BFF50B9D4F88420D4F88830D16A012284
:103790008A4023EA0203C4F888306B1C1BD0D4F89B
:1037A000843075195D6008D3D4F8A000D4F8841073
:1037B000BDE8F840043102F027BFD4F8A400D4F8E3
:1037C0008410043102F020FFD4F8A830AB4288BF47
:1037D000C4F8A850F8BD002FE1D0D4F89030D4F848
:1037E0008400D4F8842099688360D160D4F8840080
:1037F0009D68D4F88410D4F88460D4F88C20043008
:1038000068600431044899600132C4F88C2070610A
:10381000F8BD00BFD00800205C09002068B10B4A49
:103820004369934201D000207047806A2033984258
:10383000F9D0B0FA80F0400970474FF0500383F39D
:103840001188BFF36F8FBFF34F8FFEE75C09002035
:10385000034BD3F8A420D2681268C3F8A82070479D
:10386000D00800205A492DE9F84FD1F880400134A2
:10387000C1F8804004BBD1F8A4301B6843B14FF0BD
:10388000500383F31188BFF36F8FBFF34F8FFEE7B1
:10389000D1F8A430D1F8A020C1F8A420C1F8A030FC
:1038A000D1F8C0300133C1F8C030D1F8A4301B6862
:1038B000002B7ED0FFF7CCFFD1F8A8309C4265D317
:1038C000D1F8A430186800287CD00020DFF804E18B
:1038D00084464FF001084BE05D69D3E90272D5F8E8
:1038E00004A0BA60B24557602F6808BF6A609A6A40
:1038F000C3F814C0013F2F6072B1D3E90775D2F845
:1039000004A0BD601D6ACA456F6008BF5560156898
:10391000C3F828C0013D1560DA6AD1F888B002EB1F
:10392000820501EB850A08FA02F7DAF82090C3F85D
:10393000089047EA0B07C1F88870D9F80870DAF8E0
:103940001CB0DF60D9F808700EEB85050BF1010B98
:103950007E60C9F808605D61CAF81CB0D1F8845077
:10396000D1F8A430ED6A1B68AA4228BF01204BB3EE
:10397000D1F8A430DB68DB685A68944203F104068E
:1039800003F11809A8D2C1F8A82000E00020D1F85E
:103990008430DB6A03EB830301EB8303DA69D1F83C
:1039A000C430022A28BF0120002B18BF0120BDE827
:1039B000F88F4FF0FF33C1F8A830D1F8A8309C42FF
:1039C000E4D37DE74FF0FF33C1F8A830DFE700BF55
:1039D000D0080020EC0800202DE9F0479700804631
:1039E00038460D46994603F001F860B30646582064
:1039F00002F0FCFF0446002800F0958006633A467A
:103A00003046A52103F0BEFB266B002D00F093800D
:103A10006A1E04F13303093512F8010F03F8010F90
:103A2000107808B1AA42F7D1002384F83D30089BF2
:103A3000042B0CD94FF0500383F31188BFF36F8F21
:103A4000BFF34F8FFEE74FF0FF30BDE8F087089BD4
:103A5000E362002504F1040AC4E91235504602F07D
:103A6000BFFD04F1180002F0BBFD089B2565043F73
:103A7000C3F105033744A36127F0070084F85450CD
:103A8000246164624A46414602F028FE099B206098
:103A900003B11C60494E02F05FFEB3690133B361AC
:103AA000D6F88430002B54D0D6F8F030002B45D017
:103AB000E36A06F11C0703EB830C06EB8C00D6F8D7
:103AC0008820016A4FF0010808FA03F313438D6858
:103AD000C6F88830C269E560D6F8F430D1F808E05D
:103AE000A160434407EB8C0742442364CEF804A052
:103AF000C1F808A06761C261C6F8F43002F04EFE5A
:103B0000D6F8F030ABB1D6F88420E36AD26A9A4294
:103B10000FD22B4B4FF080521A60BFF34F8FBFF381
:103B20006F8F404691E7304602F06EFF4FF0FF3056
:103B30008BE7404689E784F8345078E7D6F884204C
:103B4000E36AD26A9A4298BFC6F8844006F11C071D
:103B5000B1E7C6F88440B369012BA9D106F11C076F
:103B6000384602F031FD06F1300002F02DFD06F17D
:103B7000440002F029FD06F1580002F025FD06F18F
:103B8000C80806F16C0002F01FFD06F1DC05404696
:103B900002F01AFD284602F017FD06F1AC0002F013
:103BA00013FD301D02F010FD06F18C0002F00CFD3B
:103BB000C6F8A480E36AC6F8A0507CE7D0080020CD
:103BC00004ED00E070B50546354C02F0C5FD002D52
:103BD00045D02E1D304602F02FFD30B9E86A00EBCB
:103BE000800304EB8303DB6983B3AB6A1BB105F18C
:103BF000180002F021FDD4F8F430D4F88420013309
:103C0000AA42C4F8F43039D0A369013BA361D4F8C7
:103C1000A4301B68ABB1FFF71BFE02F0BFFDD4F868
:103C20008430AB4205D0286B02F0EEFE284602F04D
:103C3000EBFED4F8F0301BB1D4F88430AB4211D095
:103C400070BD4FF0FF33C4F8A830E6E7D4F88830F1
:103C50000122824023EA0203C4F88830C5E7D4F881
:103C60008450B6E7D4F8F83083B14FF0500383F3B3
:103C70001188BFF36F8FBFF34F8FFEE709483146BE
:103C800002F0B2FC236801332360C6E7064B4FF015
:103C900080521A60BFF34F8FBFF36F8F70BD00BFAC
:103CA000D0080020D408002004ED00E020B32DE966
:103CB000F0411D4CD4F884308342054619D002F0FF
:103CC0004BFDD4F8A4806E69D4F8A07002F066FDB4
:103CD00046451CD0BE421AD004F18C039E4214D03B
:103CE0000434A64216D0002E0CBF04200120BDE8EB
:103CF000F0810020BDE8F0814FF0500383F311887C
:103D0000BFF36F8FBFF34F8FFEE7AB6A23B1022083
:103D1000BDE8F0810420EDE795F85430012B0CBF8D
:103D200002200320E6E700BFD008002010B50446BB
:103D300082B002F011FD34B1E06A019002F02EFD74
:103D4000019802B010BD024BD3F88440F4E700BFE5
:103D5000D008002010B5044602F01CFEEFF31183DA
:103D60004FF0500282F31188BFF36F8FBFF34F8F74
:103D70001CB1E06A83F3118810BD034AD2F8844075
:103D8000E06A83F3118810BDD008002004292DE9D2
:103D9000F84308D94FF0500383F31188BFF36F8FB6
:103DA000BFF34F8FFEE704460D4602F0D5FC002C12
:103DB00062D0A36C9D425BD0324E0BD9D6F88420E2
:103DC000A2425DD0D6F88420D76AAF428CBF0027CC
:103DD000012705E0D6F884703F1BB7FA87F77F0903
:103DE000D4F82C80A5644345A36908BFE562002B85
:103DF000A4BFC5F10505A561234D626908EB8803E1
:103E000005EB83039A422AD104F10409484602F0E3
:103E100013FC40B9D6F88830012202FA08F823EAE8
:103E20000803C6F88830E26AD6F888C002EB820040
:103E300006EB8001012393400A6A43EA0C03C6F8AB
:103E400088309368E360CB699668A26005EB8005D3
:103E50000133C6F80490C2F808906561CB613FB1A8
:103E60000A4B4FF080521A60BFF34F8FBFF36F8F32
:103E7000BDE8F84302F092BC024BD3F8844098E7C7
:103E80000027ADE7D0080020EC08002004ED00E09A
:103E9000F8B580B1234DD5F884308342044609D06B
:103EA00002F05AFC2046FFF7B9FC68B9BDE8F840BB
:103EB00002F074BCF8BD4FF0500383F31188BFF3D8
:103EC0006F8FBFF34F8FFEE7261D304602F0B4FB25
:103ED000E26AD5F8887002EB820C05EB8C000123B6
:103EE000016AA16093403B438F68E7608F68C5F823
:103EF0008830C3697E6005F11C07013307EB8C072E
:103F00008E606761C361D5F88430DB6A9A42CDD395
:103F1000054B4FF080521A60BFF34F8FBFF36F8F86
:103F2000C4E700BFD008002004ED00E000284AD01C
:103F30002DE9F041054602F02DFDEFF311874FF01A
:103F4000500383F31188BFF36F8FBFF34F8F284661
:103F5000FFF764FC0446002830D0234ED6F8F84022
:103F6000002C39D1D6F88430EA6ADB6A05F10408FE
:103F70009A4228BF0124404628BFC6F8C44002F038
:103F80005BFBE86AD6F888E000EB800C06EB8C015E
:103F900001230A6AAA60834043EA0E039068C6F8C8
:103FA0008830CB69E860114E906806EB8C060133CF
:103FB000C0F80480C2F808806E61CB6187F3118875
:103FC0002046BDE8F0814FF0500383F31188BFF322
:103FD0006F8FBFF34F8FFEE705F1180106F1AC00BC
:103FE00002F002FB0024E9E7D0080020EC080020E2
:103FF00030B51C4C1C491D4883B004F1FC0300255E
:10400000CDE9005382222B46FFF7E6FC012805D0BC
:1040100001301DD0164B1B6803B030BD01F090FA83
:104020000128F5D14FF0500383F31188BFF36F8F50
:10403000BFF34F8F4FF0FF33C4F8A830C4F8F0003F
:10404000C4F8805002F022FC094B1B6803B030BD5D
:104050004FF0500383F31188BFF36F8FBFF34F8F7F
:10406000FEE700BFD0080020C07800081537000820
:10407000480000204FF0500383F31188BFF36F8F87
:10408000BFF34F8F024B0022C3F8F02002F052BB67
:10409000D0080020034AD2F8F8300133C2F8F830D3
:1040A000704700BFD00800202DE9F843514CD4F8E8
:1040B000F83043B94FF0500383F31188BFF36F8F8B
:1040C000BFF34F8FFEE702F047FBD4F8F830013B17
:1040D000C4F8F830D4F8F820002A78D1A369002B6E
:1040E00075D0D4F8AC30002B56D004F11C0E4FF034
:1040F000010CD4F8B830DB68DE69186A996AB060E0
:104100001D6A4F686E6003F11805AF4208BF486032
:1041100008689A62013808605D69D3E902016E6837
:10412000816003F10408464548602E6808BF696055
:10413000D96A013E01EB81002E6004EB8007D4F8C0
:1041400088603D6A9D600CFA01F949EA0606C4F8E8
:104150008860AE68D7F81C90DE60AE680EEB800019
:1041600009F10109C6F80480C5F808805861C7F84C
:104170001C90D4F88430DB6A994228BFC4F8C4C0CC
:10418000D4F8AC30002BB4D1D4F8A4301B6823BBD6
:104190004FF0FF33C4F8A830D4F80051A5B1012680
:1041A00006E0FFF75FFB08B1C4F8C460013D09D029
:1041B000D4F8F830002BF4D0D4F800310133C4F82F
:1041C0000031F3E7C4F80051D4F8C43043B90024F7
:1041D00002F0E4FA2046BDE8F883FFF739FBDBE79D
:1041E000054B4FF080521A60BFF34F8FBFF36F8FB4
:1041F0000124EDE7D008002004ED00E058B341B9F8
:104200004FF0500383F31188BFF36F8FBFF34F8FCD
:10421000FEE7214B70B5D3F8F8602EBBD3F8F82039
:104220000132C3F8F8200568D3F8802069182CBF44
:1042300001240024954201601FD92CBBFFF734FFF5
:1042400038B9164B4FF080521A60BFF34F8FBFF34F
:104250006F8F204670BD4FF0500383F31188BFF37A
:104260006F8FBFF34F8FFEE74FF0500383F311883A
:10427000BFF36F8FBFF34F8FFEE74CB1881A002159
:10428000FFF774FA0124D9E78A42F7D33446D5E719
:104290008A42D3D2F2E700BFD008002004ED00E04C
:1042A00008B5B0B10F4BD3F8F81041B14FF050033F
:1042B00083F31188BFF36F8FBFF34F8FFEE7D3F8FF
:1042C000F8200132C3F8F820FFF750FAFFF7ECFEB0
:1042D00038B9054B4FF080521A60BFF34F8FBFF3D0
:1042E0006F8F08BDD008002004ED00E0014BD3F82B
:1042F00080007047D008002008B502F04BFB024B4D
:10430000D3F8800008BD00BFD0080020014B986999
:10431000704700BFD008002008B134307047074B09
:10432000D3F884000028F8D14FF0500383F31188AC
:10433000BFF36F8FBFF34F8FFEE700BFD0080020A1
:104340000C4BD3F8F82042B14FF0500383F311889F
:10435000BFF36F8FBFF34F8FFEE7D3F8F820013222
:10436000C3F8F820D3F800210244C3F80021FFF776
:104370009BBE00BFD0080020064BD3F8F8200AB936
:10438000FFF770BAD3F800210132C3F800210020F2
:10439000704700BFD0080020164AD2F8F8301BB191
:1043A0000123C2F8C4307047C2F8C430D2F8883054
:1043B000B3FA83F3DBB2C3F11F0303EB830302EB16
:1043C00083009B00C16941B94FF0500383F311880A
:1043D000BFF36F8FBFF34F8FFEE7016A1344496845
:1043E00001622433994204BF49680162CB68C2F874
:1043F00084307047D008002070B50446354D02F077
:10440000ABF9002C49D0261D304602F015F930B921
:10441000E06A00EB800305EB8303DB694BB3A36A1F
:104420001BB104F1180002F007F92B48314602F0E5
:10443000DBF894F85430012B04BF002384F8543087
:1044400002F0ACF9D5F8F030E3B9D5F88430A342E6
:1044500000D070BDD5F8F0303BB3D5F8F83063B379
:104460004FF0500383F31188BFF36F8FBFF34F8F6B
:10447000FEE7D5F888300122824023EA0203C5F81E
:104480008830CCE702F068F9D5F8A4301B683BB15E
:10449000FFF7DEF902F082F9D7E7D5F88440B2E7FA
:1044A0004FF0FF33C5F8A830F4E7D5F88C10AA69AF
:1044B00091420BD1C5F8843070BD084B4FF080524B
:1044C0001A60BFF34F8FBFF36F8F70BDBDE87040B0
:1044D000FFF762BFD00800205C09002004ED00E077
:1044E00068B110B50A4B0C46D3F88410183102F0AD
:1044F0008BF820460121BDE81040FFF737B94FF097
:10450000500383F31188BFF36F8FBFF34F8FFEE724
:10451000D008002070B1F0B41B4C0346D4F8F8006A
:1045200088B94FF0500383F31188BFF36F8FBFF347
:104530004F8FFEE74FF0500383F31188BFF36F8F67
:10454000BFF34F8FFEE75D68D4F88470D4F88460C1
:10455000D4F8840041F00041B961A968D4F88470AE
:10456000F5610162D4F88410D4F884601C681046A8
:10457000AA681837183101345760A960B362012165
:104580001C60F0BCFFF7F2B8D008002038B3F0B4DC
:10459000174C4568D4F88470AE68FD610346D4F8C2
:1045A0008400D4F884C00662D4F88470D4F884609F
:1045B0001C68002A08BF08461146AA6807F11807B8
:1045C00004F101040CF1180CC2F804C018BF4FF03C
:1045D000FF30AF60B3621C60F0BCFFF7C7B84FF0AC
:1045E000500383F31188BFF36F8FBFF34F8FFEE744
:1045F000D0080020C368DB68002B5BD0996AD3E940
:104600000702F0B54C68826003F118055060086835
:10461000AC4208BF4A6001382B4A00249C62086003
:10462000D2F8F810D1B1D2F8B000D2F8AC4081681D
:1046300019628668D861D96A75600134856002F1B3
:10464000AC00C2F8AC409862D2F88430DB6A8B428E
:104650003ABF0120C2F8C4000020F0BD58699C6830
:10466000D968A1604568D968184E4C6003F1040C04
:104670006545046808BF4160D96A013C01EB810EC1
:10468000046002EB8E05D2F888702C6A9C600120D1
:1046900088403843C2F88800A768E869DF60A768E7
:1046A00006EB8E060130C7F804C0C4F808C05E618E
:1046B000E861C9E74FF0500383F31188BFF36F8FB0
:1046C000BFF34F8FFEE700BFD0080020EC080020AA
:1046D000314AD2F8F83043B94FF0500383F31188D0
:1046E000BFF36F8FBFF34F8FFEE7C36841F0004108
:1046F0000160002B47D02DE9F041456801698468CD
:10470000AC604E688468254F656086424FF00005B6
:1047100008BF4C600C68056158699D68DE68013C03
:104720000C60AE604468D96803F1040C64454D60C8
:10473000056808BF4160D96A013D01EB8108056049
:1047400002EB8804D2F88860206A98604FF0010E6E
:104750000EFA01F53543C2F888508568DD60E569D9
:10476000866807EB88077544C6F804C0C0F808C01F
:104770005F61E561D2F88430DB6A994288BFC2F894
:10478000C4E0BDE8F0814FF0500383F31188BFF31C
:104790006F8FBFF34F8FFEE7D0080020EC0800209A
:1047A00070B110B5044601F0D7FF0A4BD3F8C02012
:1047B000D3F88030C4E90023BDE8104001F0EEBF1B
:1047C0004FF0500383F31188BFF36F8FBFF34F8F08
:1047D000FEE700BFD0080020034BD3F8C020D3F879
:1047E0008030C0E900237047D0080020F8B510B32E
:1047F0000D46B9B1044601F0AFFF2B681C4A591CA5
:10480000D2F880002ED0D4E90071D2F8C060B7424F
:104810001AD0814218D800232B60012501F0BEFF79
:104820002846F8BD4FF0500383F31188BFF36F8F14
:10483000BFF34F8FFEE74FF0500383F31188BFF3B0
:104840006F8FBFF34F8FFEE7461AB342E3D91B1AAF
:104850000B44D2F8C010D2F880202B60C4E90012BB
:104860000025DBE7002501F099FF2846F8BD00BFD1
:10487000D0080020024B0122C3F8C420704700BFBB
:10488000D008002000B1406C704700BF00B1416407
:10489000704700BF70B50C46164658B3054605F183
:1048A0003401EA6A6160296B22612A6CE161A96CBA
:1048B000A260052B4FF00002C4E9051225601FD04D
:1048C0001949D1F88400A84218D0032B23731CD0B7
:1048D00076B12B6B1A78A52A23D1C3F10100C11838
:1048E00013F8012FA52AFAD0C1F38F01218470BDDE
:1048F000268470BD0C4AD2F88450D0E72273E7E7D3
:104900002846FFF7D3F92073E2E7D1F8F8300133F6
:10491000C1F8F830AB6A0BB102232373FFF7C4FB75
:10492000D6E70021E2E700BFD00800204B685B68B3
:104930002DE9F04701F10808434508BFCB680E4652
:10494000D3F80CA091460546002700E073685C6828
:104950007460A04504BFD8F804407460E468294638
:1049600001224B4620461744FFF794FFA24505F16C
:104970002405EBD13846BDE8F08700BF2DE9F843A8
:10498000324ED6F8F8300133C6F8F830B3698B42AE
:1049900055D8002481469046A44606F16C070525AB
:1049A000013D05EB850306EB83030CEB0400DB699B
:1049B0003946012209EB800043B1FFF7B7FF0444F9
:1049C00004EBC40009EB80004FEAC40C143F002D37
:1049D000E6D1D6F8A4100B683BB10222FFF7A6FF80
:1049E000044404EBC40009EB8000D6F8A0100B6867
:1049F0003BB10222FFF79AFF044404EBC40009EB29
:104A00008000736843B112490422FFF78FFF04440A
:104A100004EBC40009EB8000D6F88C3023B10D49BB
:104A20000322FFF783FF0444B8F1000F02D00023F4
:104A3000C8F80030FFF738FB2046BDE8F8830024B3
:104A4000FFF732FB2046BDE8F88300BFD008002006
:104A5000D40800205C090020014BD3F88400704783
:104A6000D0080020064BD3F8F02032B1D3F8F8304C
:104A7000002B0CBF0220002070470120704700BFB0
:104A8000D0080020F8B50446E0B12A4DC36AD5F835
:104A90008420D26A934216D28269002A05DBD5F8B7
:104AA0008420D26AC2F105028261234E626903EB5F
:104AB000830306EB83039A420ED0D5F88430DB6A79
:104AC000E3620120F8BDD5F88430806CDB6A98423F
:104AD0002CBF00200120F8BD271D384601F0ACFD99
:104AE00040B9E16AD5F8883001228A4023EA0203FE
:104AF000C5F88830D5F88430D5F888E0DB6AE36201
:104B000003EB830C05EB8C0101200A6AA26000FA1A
:104B100003F343EA0E03C5F888309368CD69E36078
:104B2000936806EB8C0605445F6097606661CD6113
:104B3000F8BD00BFD0080020EC080020E0B12DE94E
:104B4000F8432C4DD5F884308342044608D04FF00A
:104B5000500383F31188BFF36F8FBFF34F8FFEE7CE
:104B6000DB6C5BB1C16A826C013B9142C36400D0D3
:104B70006BB10020BDE8F883002070474FF0500370
:104B800083F31188BFF36F8FBFF34F8FFEE7061DCE
:104B9000304601F051FD40B9E16AD5F88830012274
:104BA0008A4023EA0203C5F88830A36CD5F88880D0
:104BB000DFF84490E36203EB830E05EB8E010120E6
:104BC0000A6A00FA03FC4CEA080C9768C5F888C02A
:104BD000CD69E760D2F808C0A26009EB8E07C3F187
:104BE00005030544A361CCF8046096606761CD615C
:104BF000C0E700BFD0080020EC080020B0B1F8B535
:104C00000446C06C48B1A36CE26A8B4238BF0B46C5
:104C10009A4201D001280AD0F8BD4FF0500383F327
:104C20001188BFF36F8FBFF34F8FFEE77047234D9F
:104C3000D5F88410A1422FD0A169214EE36200294A
:104C4000A8BFC3F105036169A8BFA36102EB82029B
:104C500006EB82039942DFD1271D384601F0ECFCB8
:104C6000E36A10B301229A4003EB830305EB830050
:104C7000D5F888C0016AA1604CEA0202C5F8882014
:104C80008A68C569E2608A6806EB8303013557606C
:104C90008F606361C561F8BD4FF0500383F31188E5
:104CA000BFF36F8FBFF34F8FFEE7D5F88810012257
:104CB0009A4021EA0201C5F88810D5E7D008002003
:104CC000EC080020064AD2F88410D2F88430D2F8DA
:104CD0008420DB6A8869C3F105039361704700BFD4
:104CE000D0080020054BD3F8842022B1D3F88410DB
:104CF000CA6C0132CA64D3F884007047D00800201F
:104D000040B14FF0500383F31188BFF36F8FBFF3AF
:104D10004F8FFEE770B5194C0E46154601F01CFD8D
:104D2000D4F884301B6D83B9D4F88430012183F822
:104D3000541055B12846FEF719FD114B4FF0805223
:104D40001A60BFF34F8FBFF36F8F01F027FD01F0A3
:104D500003FDD4F884301D6D25B1D4F8843056B1EC
:104D600000221A65D4F88430002283F8542001F020
:104D700015FD284670BD6A1E1A65F3E7D0080020AD
:104D800004ED00E02DE9F041DDF8188040B14FF06E
:104D9000500383F31188BFF36F8FBFF34F8FFEE78C
:104DA000234C1D460F46164601F0D6FCD4F884303D
:104DB00093F85430022B0DD0D4F88420136D23EADD
:104DC00007031365D4F88430012183F85410B8F137
:104DD000000F19D101F0E2FC01F0BEFC1DB1D4F8C6
:104DE00084301B6D2B60D4F8843093F85430022B40
:104DF00016D00025D4F88430002283F8542001F026
:104E0000CDFC2846BDE8F0814046FEF7AFFC094BDB
:104E10004FF080521A60BFF34F8FBFF36F8FD9E707
:104E2000D4F88420136D23EA060313650125E1E716
:104E3000D008002004ED00E02DE9F843089F41B1BF
:104E40004FF0500383F31188BFF36F8FBFF34F8F81
:104E5000FEE7044698B115461E4601F07DFC0FB1F1
:104E6000236D3B6094F854200223D2B284F854306E
:104E7000042E6ED8DFE806F00F0C655469004FF081
:104E8000500383F31188BFF36F8FBFF34F8FFEE79B
:104E9000236D1D432565012A3CD1A1686369E26841
:104EA0008A605868E268D4F82880516004F1040EE2
:104EB000E16A7045186808BF5A602D4A01EB810904
:104EC0000138186002EB8905D2F88870286AA06062
:104ED000012303FA01F63E43C2F888608668E66063
:104EE000EE69876802F11C0C0CEB890C1E44C7F8B4
:104EF00004E0C0F808E0C4F814C0EE61B8F1000F97
:104F000010D04FF0500383F31188BFF36F8FBFF3BE
:104F10004F8FFEE7012401F041FC2046BDE8F883F5
:104F20002565B8E7D2F88420D26A9142F2D9114AB5
:104F30004FF080511160BFF34F8FBFF36F8F1C464E
:104F4000E9E7236D01332365A5E7022AE8D10024B0
:104F5000E1E7074BD3F88030002B9CD04FF0500393
:104F600083F31188BFF36F8FBFF34F8FFEE700BF4E
:104F7000D008002004ED00E02DE9F843DDE90886C3
:104F800048B189B14FF0500383F31188BFF36F8F9D
:104F9000BFF34F8FFEE74FF0500383F31188BFF349
:104FA0006F8FBFF34F8FFEE715461F46044601F093
:104FB000F1FCEFF3118E4FF0500383F31188BFF330
:104FC0006F8FBFF34F8FB8F1000F02D0236DC8F879
:104FD000003094F854200223D2B284F85430042FC5
:104FE00075D8DFE807F0046C700316002565012A08
:104FF00004D001208EF31188BDE8F883A36A63B161
:105000004FF0500383F31188BFF36F8FBFF34F8FBF
:10501000FEE7022AEAD10020ECE7344BD3F8F8206F
:10502000002A38D16169A068E26882604D68E26850
:10503000DFF8BCC0506004F104084545086808BFAB
:105040004A60E26A013802EB8209086003EB8905D5
:10505000D3F88870286AA060012191403943C3F8D1
:1050600088108768E760EF6981680CEB890C01376D
:10507000C1F80480C0F80880C4F814C0EF61D3F808
:105080008410C96A9142B4D20EB10122326001206B
:10509000C3F8C400AEE7D3F8B010D3F8AC008A6808
:1050A00022628D68E26AE161013004F11807C3F8F9
:1050B000AC0003F1AC006F608F60A062DFE7236D8E
:1050C0001D43256593E7236D013323658FE7074B68
:1050D000D3F88030002B8AD04FF0500383F311882F
:1050E000BFF36F8FBFF34F8FFEE700BFD0080020E4
:1050F000EC0800202DE9F84348B189B14FF0500386
:1051000083F31188BFF36F8FBFF34F8FFEE74FF02C
:10511000500383F31188BFF36F8FBFF34F8FFEE708
:105120001546044601F036FCEFF311894FF05003A9
:1051300083F31188BFF36F8FBFF34F8F022394F86F
:10514000542084F85430236D012A03F101032365B0
:1051500003D089F31188BDE8F883A36A43B14FF007
:10516000500383F31188BFF36F8FBFF34F8FFEE7B8
:10517000284BD3F8F820002A38D16269A068E1688A
:1051800081605668E168DFF890C0486004F1040E61
:105190007645106808BF5160E16A013801EB81086B
:1051A000106003EB8806D3F88870326AA260012091
:1051B00088403843C3F888009768E760F7699068CB
:1051C0000CEB880C0137C0F804E0C2F808E0C4F822
:1051D00014C0F761D3F88420D26A8A42B9D20DB1E3
:1051E00001222A600122C3F8C420B2E7D3F8B0201C
:1051F000D3F8AC00916821629668E16AE2610130FF
:1052000004F11807C3F8AC0003F1AC0077609760B5
:10521000A062DFE7D0080020EC08002041B14FF089
:10522000500383F31188BFF36F8FBFF34F8FFEE7F7
:1052300010B5044670B101F08FFA94F85430022B87
:1052400005BF002384F854300024012401F0A6FA9D
:10525000204610BD014BD3F88440ECE7D008002075
:1052600070B50E4682B0154678B1044601F074FA66
:1052700004EB8601086D0B6D019023EA05030B65B5
:1052800001F08CFA019802B070BD024BD3F8844053
:10529000ECE700BFD0080020F8B5104C01F05CFA34
:1052A00025681DB1BDE8F84001F078BA271D3846E1
:1052B00004F1180601F088F9304601F085F92A4614
:1052C0000C210A20C4E90B7600F060FB2060002866
:1052D000E8D0034901F0C8F8E4E700BFD409002092
:1052E000C8780008914208B50061416005D881691D
:1052F000D21A8A420CD3012008BD9A4201D29942A7
:10530000F9D2074B011DD86A01F07EF9002008BDD3
:10531000034B011D186B01F077F9002008BD00BF99
:10532000D409002070B504460D46164603E0A16975
:10533000236A0D449847A1692B46294432462046EA
:10534000FFF7D0FF03462046002BF0D170BD00BF11
:10535000104BDB6ADB6870B5DC680546201D0E4625
:1053600001F06AF994F828305A0708D423F00103B1
:1053700084F828302046236ABDE87040184720464C
:1053800032462946FFF7CEFF236A2046BDE870402B
:10539000184700BFD409002010B5094CE36A1A6809
:1053A0004AB1DB684FF0FF311868FFF7D1FFE36ABD
:1053B0001A68002AF5D1226BC4E90B2310BD00BF87
:1053C000D40900202DE9F0415B4C5C4F84B04FF0D4
:1053D0008058E36A1E68002E79D0DB681E68FEF7ED
:1053E00059FEFEF783FF636B984205467ED38642E3
:1053F000606340F2848000222068711B01F0BCF8D9
:10540000FEF752FE28B9C7F80080BFF34F8FBFF3F5
:105410006F8F2068002201A900F0BEFC0028D8D0C0
:10542000019B002BF5DB039E736913B1301D01F066
:1054300003F9FEF75BFF636B984205465CD3019B63
:105440006563013B082BE4D8DFE803F00505312054
:1054500038050531200096F82820029BB16942F0FA
:10546000010286F8282019442A463046FFF73AFF01
:105470000028CED096F8283059074BD423F00103EA
:1054800086F82830336A30469847C2E796F82830C5
:105490000299B16143F0010386F82830002941D018
:1054A000294430462B462A46FFF71CFFB1E796F801
:1054B000283023F0010386F82830AAE796F8283030
:1054C0009A0723D523F0010386F82830A1E7FEF7D9
:1054D000E1FDFEF70BFF636B9842054606D3236B95
:1054E00065631A68B2FA82F2520985E7FFF754FF42
:1054F0006563FEF7D9FD8CE7FFF74EFF9FE7FEF7E8
:10550000D3FD29463046FFF723FF82E7304601F0FE
:105510007BFA7EE70299B3692A4619443046FFF7C1
:1055200001FFAFE74FF0500383F31188BFF36F8F94
:10553000BFF34F8FFEE700BFD409002004ED00E069
:1055400000B583B0FFF7A8FE0D4B1A685AB1383387
:105550000222CDE900230B490B4800234FF482724D
:10556000FEF73AFA40B94FF0500383F31188BFF3C6
:105570006F8FBFF34F8FFEE703B05DF804FB00BFF2
:10558000D4090020D0780008C55300082DE9F04167
:1055900007462C20884615461E4601F027FA044689
:1055A000F8B1002380F82830B8F1000F08D14FF08F
:1055B000500383F31188BFF36F8FBFF34F8FFEE764
:1055C000FFF76AFE069B2760C4E906862362201D5A
:1055D00001F006F82DB194F8283043F0040384F864
:1055E00028302046BDE8F081B0B170B5164D0446B4
:1055F000286884B070B10529CDE90112039414DC48
:10560000FFF730FA022817D0002328681A4601A9AC
:1056100000F0FEF904B070BD4FF0500383F3118821
:10562000BFF36F8FBFF34F8FFEE71A4601A9002328
:1056300000F0E0FA04B070BD2868089A002301A9C0
:1056400000F0E6F9E6E700BFD4090020064B986BAE
:1056500000B170474FF0500383F31188BFF36F8F91
:10566000BFF34F8FFEE700BFD409002008B1806967
:1056700070474FF0500383F31188BFF36F8FBFF370
:105680004F8FFEE738B5B0B104460D4601F064F81F
:1056900094F828303DB903F0FB0384F82830BDE8C6
:1056A000384001F07BB843F0040384F82830BDE8AB
:1056B000384001F073B84FF0500383F31188BFF303
:1056C0006F8FBFF34F8FFEE770B110B5044682B005
:1056D00001F042F894F82800C0F38000019001F036
:1056E0005DF8019802B010BD4FF0500383F31188AC
:1056F000BFF36F8FBFF34F8FFEE700BF08B1406865
:1057000070474FF0500383F31188BFF36F8FBFF3DF
:105710004F8FFEE708B1006870474FF0500383F3E6
:105720001188BFF36F8FBFF34F8FFEE770B110B5D5
:10573000044682B001F010F894F8280000F001004F
:10574000019001F02BF8019802B010BD4FF050030A
:1057500083F31188BFF36F8FBFF34F8FFEE700BF56
:1057600058B110B5044682B000F0F6FFE069019030
:1057700001F014F8019802B010BD4FF0500383F30C
:105780001188BFF36F8FBFF34F8FFEE738B540B17D
:1057900004460D4600F0E0FFE561BDE8384000F04A
:1057A000FDBF4FF0500383F31188BFF36F8FBFF33A
:1057B0004F8FFEE7406A70474162704770B50446FC
:1057C000006CA66B20B925685DB30136A66370BD79
:1057D0001546024685B9606801F03AFC6368216CA1
:1057E000A2680B449342636006F1010624BF23685C
:1057F00063602846A66370BDE06801F029FC226C56
:10580000E36821689B1A8B42E360C2F1000202D276
:10581000A3681A44E260022D08D001360020A66376
:1058200070BDA068FFF78AF9A560CEE7012E38BFEA
:1058300001260020CAE700BF026C72B110B40B460B
:10584000D0E902411144A142C16024BF0168C16096
:105850005DF8044B184601F0FBBB704770B5044679
:1058600000F07AFF94F845506DB2002D15DD04F17B
:10587000240604E06B1E13F0FF0F5DB20DD0636AC7
:10588000304653B1FEF7B6FE0028F3D0FEF7F2FF24
:105890006B1E13F0FF0F5DB2F1D1FF2384F845308A
:1058A00000F07CFF00F058FF94F844506DB2002DDA
:1058B00015DD04F1100604E06B1E13F0FF0F5DB25E
:1058C0000DD02369304653B1FEF794FE0028F3D083
:1058D000FEF7D0FF6B1E13F0FF0F5DB2F1D1FF2377
:1058E00084F84430BDE8704000F058BF58B370B53C
:1058F000C56B0446F5B1036CA3FB0535D5B90E465F
:1059000000F02AFFD4E90F322168A56303FB02F3FC
:105910009A1AFF200A440B4484F84400C4E9023276
:10592000616084F84500BEB92369F3B900F036FF21
:10593000012070BD4FF0500383F31188BFF36F8FC8
:10594000BFF34F8FFEE74FF0500383F31188BFF38F
:105950006F8FBFF34F8FFEE704F1100000F034FEAD
:1059600004F1240000F030FEE0E704F11000FEF73F
:1059700041FE0028DAD0044B4FF080521A60BFF38A
:105980004F8FBFF36F8FD1E704ED00E0F8B550B152
:105990001746A0FB01230D46064623B901FB00F084
:1059A00010F1510F08D94FF0500383F31188BFF362
:1059B0006F8FBFF34F8FFEE7503001F017F80446AA
:1059C00050B15DB90346C4E90F652360012120464B
:1059D000FFF78CFF84F84C702046F8BD00F15003AF
:1059E000F1E700BF10B510B188420C4608D24FF065
:1059F000500383F31188BFF36F8FBFF34F8FFEE720
:105A000002220021FFF7C2FF00B1846310BD00BF76
:105A10002DE9F04784B00192002876D088461F46D1
:105A20000446002965D0022F0BD1E36B012B08D06F
:105A30004FF0500383F31188BFF36F8FBFF34F8F85
:105A4000FEE7FFF70FF80646002867D00026DFF8CC
:105A50003CA14FF0000907E000F0A0FE2046FFF750
:105A6000FDFEFEF721FB012600F076FEA26BE36B44
:105A70009A4263D3022F61D0019D002D00F08280F5
:105A8000002E57D000F08AFEFEF704FB00F064FE03
:105A900094F84430FF2B08BF84F8449094F84530C4
:105AA000FF2B08BF84F8459000F078FE01A902A8FA
:105AB000FEF79CFE00285ED100F04EFEA26BE36B69
:105AC0009A42C9D100F06AFE019904F11000FEF774
:105AD00007FD2046FFF7C2FEFEF7E6FA0028C2D116
:105AE0004FF08053CAF80030BFF34F8FBFF36F8F72
:105AF000B9E7036C002B96D04FF0500383F3118865
:105B0000BFF36F8FBFF34F8FFEE74FF0500383F368
